:020000040800F2
:1000000000400020F1070008350800083508000806
:1000100000000000000000000000000000000000E0
:10002000000000000000000000000000350800088B
:100030000000000000000000350800086507000807
:10004000350800083508000835080008350800089C
:10005000350800083508000835080008350800088C
:10006000350800083508000835080008350800087C
:10007000350800083508000835080008350800086C
:10008000350800083508000835080008350800085C
:10009000350800083508000835080008350800084C
:1000A000350800083508000835080008350800083C
:1000B00035080008350800087106000835080008F2
:1000C0005FF808F180B582B000AF78600A1CFB1CB5
:1000D0001A70FB1C1B78002B06D0084B074A51698D
:1000E0007A680A435A6106E0044B044A5269796807
:1000F000C9430A405A61BD4602B080BD00100240AB
:1001000080B582B000AF78600A1CFB1C1A70FB1C23
:100110001B78002B06D0084B074AD1697A680A433E
:10012000DA6106E0044B044AD2697968C9430A409F
:10013000DA61BD4602B080BD0010024080B582B0D9
:1001400000AF78600A1CFB1C1A70FB1C1B78002B8C
:1001500006D0084B074A11697A680A431A6106E01B
:10016000044B044A12697968C9430A401A61BD46C2
:1001700002B080BD00100240B0B582B000AF021CDA
:100180003960FB1D1A70FB1D1B787F2B2FD92D4C5E
:10019000FB1D1B781A1C0F231340083B9908294AA2
:1001A000FB1D1B78181C0F230340083B9B080633DC
:1001B0009B00D3185B68FA1D1278101C03220240C2
:1001C000D200101CFF228240D2431A403B689B01A0
:1001D000FF200340F81D0078051C03202840C000C4
:1001E00083401A438B1D9B00E3185A6026E0164C8F
:1001F000FB1D1B785BB29B081349FA1D127852B2A3
:100200009208C03292005258F91D0978081C032147
:100210000140C900081CFF218140C94311403A68D0
:100220009201FF200240F81D0078051C03202840A1
:10023000C00082400A43C0339B001A51BD4602B041
:10024000B0BDC04600ED00E000E100E080B582B046
:1002500000AF78607B680E4A934201D9012312E017
:100260000C4B7A681202120A013A5A6001235B426F
:10027000181C0321FFF780FF064B00229A60054BF4
:1002800007221A600023181CBD4602B080BDC0467C
:10029000FFFFFF0010E000E080B500AF00F0EEFBD4
:1002A00000F010F800F0D8F8054B1B68181C64210A
:1002B00001F0B8F8031C181CFFF7C8FFFEE7C046A2
:1002C0000000002080B582B000AF8023DB02181C44
:1002D0000121FFF7F7FE3B1C5C4A1A603B1C012220
:1002E0001A713B1C00229A713B1C0222DA713B1CE2
:1002F00003225A71564A3B1C101C191C00F09CFA30
:1003000080239B02181C0121FFF7DCFE3B1CC1224D
:100310001A603B1C01221A713B1C00229A713B1C83
:100320000222DA713B1C03225A719023DA053B1C2E
:10033000101C191C00F080FA80231B03181C0121DB
:10034000FFF7C0FE3B1CC022D2011A603B1C0122F9
:100350001A713B1C00229A713B1C0222DA713B1C71
:1003600003225A713B4A3B1C101C191C00F064FA12
:100370003B1C802212021A603B1C01221A713B1C9A
:1003800000229A713B1C0222DA713B1C03225A7133
:100390009023DA053B1C101C191C00F04DFA802339
:1003A000DB02181C0121FFF78DFE3B1CF8221A60AE
:1003B0003B1C01221A713B1C00229A713B1C022239
:1003C000DA713B1C03225A71214A3B1C101C191C78
:1003D00000F032FA1E4B181C0821042200F0FEFA2D
:1003E0001B4B181C0921042200F0F8FA3B1CC02208
:1003F00092001A603B1C00229A713B1C02221A7167
:100400003B1C0222DA713B1C03225A71104A3B1C2E
:10041000101C191C00F010FA3B1CC02212021A60BA
:100420003B1C00221A713B1C00229A713B1C0222C9
:10043000DA713B1C03225A71054A3B1C101C191C23
:1004400000F0FAF9BD4602B080BDC046030C0000C2
:10045000000400480008004880B588B000AF802341
:100460009B04181C0121FFF74BFE3A4B181C00F0AF
:10047000BBFB1023FB18181C00F076FD1023FB18A3
:1004800003221A801023FB180022DA701023FB18B5
:1004900009221A711023FB1804225A711023FB1829
:1004A00000229A701023FB1800229A711023FB1867
:1004B0000022DA711023FB1800221A721023FB1895
:1004C00000225A721023FB1800229A721023FB1884
:1004D0000022DA721F4A1023FB18101C191C00F0AE
:1004E00097FB3B1C00229A723B1C0022DA723B1CD9
:1004F00001221A733B1C00221A803B1C00225A80E6
:100500003B1C00229A803B1C0022DA803B1C00220C
:100510001A813B1C01225A733B1C181C00F056FC2C
:100520000C4B181C0221012200F00CFF1C23FB18AD
:100530001E221A701C23FB1800225A701C23FB1861
:1005400001229A701C23FB18181C00F017FFBD46EF
:1005500008B080BD0064004080B586B000AF3B1D90
:10056000C022D2001A603B1D00225A603B1D0022AF
:100570005A723B1D00221A723B1D01229A723B1DCA
:100580000122DA72044A3B1D101C191C00F014FDF4
:10059000BD4606B080BDC0460064004080B582B054
:1005A00000AF78602F4B181CF82100F009FA902357
:1005B000DA0580231B02101C191C00F001FA2A4ADC
:1005C000C023DB01101C191C00F0FAF97B68052B15
:1005D00045D87B689A00254BD3181B689F46214B52
:1005E000181C682100F0DEF939E01E4B181C0821A8
:1005F00000F0D8F91C4A8023DB01101C191C00F004
:10060000D1F92CE0174B181C702100F0CBF9164AD9
:10061000C023DB01101C191C00F0C4F91FE0114BB2
:10062000181C582100F0BEF90F4AC023DB01101C32
:10063000191C00F0B7F912E00A4B181CC82100F091
:10064000B1F9094A8023DB01101C191C00F0AAF93A
:1006500005E0044B181C402100F0A4F9C046BD463B
:1006600002B080BD0004004800080048481500089A
:1006700080B588B000AF354A3B1D101C00211A1C04
:1006800000F086FD3B1D1B68314A934209D13B1D9A
:10069000DB7AFB61FB69181CFFF780FF2D4B002202
:1006A0001A603B1D1B682C4A93424CD13B1DDB7AE0
:1006B000032B48D1294A2A4B101C191C00F080F941
:1006C0009023DB05181C412100F07AF93B1D9B7B30
:1006D000283BBB61BB69692B06DD204A8023DB0018
:1006E000101C191C00F05EF93B1D5B7C1A1C0223D8
:1006F00013400AD0194B181C022100F053F9902323
:10070000DB05181C012100F04DF93B1D5B7C1A1C18
:10071000042313400AD0114B181C012100F042F9A8
:100720009023DB05181C402100F03CF93B1D5B7C4D
:100730001A1C0823134006D0084A80231B01101CF2
:10074000191C00F02FF9BD4608B080BD00640040C0
:1007500077070000140000207B0700000004004819
:10076000030C000080B500AF1D4B1B685A1C1C4BCE
:100770001A601B4B1B681E2B17DD1A4B1A68962339
:100780009B009A4211DD164B00221A600520FFF7EC
:1007900005FF154A154B101C191C00F011F9902388
:1007A000DB05181CC12100F00BF90F4A80231B0246
:1007B000101C191C00F0D2F8031E012B01D1FFF709
:1007C000CBFE094A8023DB01101C191C00F0C6F87F
:1007D000031E012B01D1FFF7BFFEBD4680BDC04601
:1007E000140000201800002000040048030C000042
:1007F000002103E00A4B5B584350043109480A4B7F
:1008000042189A42F6D3094A02E0002313600432E8
:10081000074B9A42F9D300F031F9FFF73DFD7047DD
:1008200060150008000000201400002014000020C3
:1008300028000020FEE7000080B586B000AF786099
:10084000396000237B6100233B610023FB600023B0
:100850007B617CE07B6901229A40131C3B613B6811
:100860001B683A691340FB60FA683B699A426BD196
:100870003B681B79012B03D03B681B79022B34D1D9
:100880007B689B687A695200111C03228A40D2431C
:100890001A407B689A607B689A683B685B79191C90
:1008A0007B695B0099400B1C1A437B689A607B68EC
:1008B0009B889BB27A6992B2111C01228A4092B243
:1008C000D24392B213409AB27B689A807B689B882D
:1008D0009AB23B689B79191C7B699BB299400B1CAF
:1008E0009BB213439AB27B689A807B681B687A69D3
:1008F0005200111C03228A40D2431A407B681A60BE
:100900007B681A683B681B79191C7B695B009940FE
:100910000B1C1A437B681A607B68DB687A6992B2A9
:100920005200032191400A1CD2431A407B68DA60CE
:100930007B68DA683B68DB79191C7B695B0099404E
:100940000B1C1A437B68DA607B6901337B617B692E
:100950000F2B00D87EE7BD4606B080BD80B584B0C1
:1009600000AF78600A1CBB1C1A800F23FB18002202
:100970001A707B681B8A9BB2BA1C128813409BB208
:10098000002B04D00F23FB1801221A7003E00F2361
:10099000FB1800221A700F23FB181B78181CBD4689
:1009A00004B080BD80B582B000AF78600A1CBB1C6B
:1009B0001A80BB1C1A887B689A61BD4602B080BD54
:1009C00080B582B000AF78600A1CBB1C1A807B68BF
:1009D000BA1C12881A85BD4602B080BD80B584B0AD
:1009E00000AF7860081C111CBB1C021C1A807B1C09
:1009F0000A1C1A700023FB600023BB607B1C1B7861
:100A0000BA1C128807210A4092009340FB60BB1C6D
:100A10001B88DB089BB2181CBB1C1B88DB089BB225
:100A20001A1C7B6808329200D358BA1C128807211E
:100A30000A409200111C0F228A40D2431A40111C16
:100A40007B68021C08329200D150BB1C1B88DB085B
:100A50009BB21A1C7B6808329200D258FB68134381
:100A6000BB60BB1C1B88DB089BB21A1C7B6808326E
:100A70009200B968D150BD4604B080BD80B500AFCA
:100A80001B4B1B4A126801210A431A60184B184A73
:100A9000526818490A405A60154B154A126816499F
:100AA0000A401A60124B124A126814490A401A602E
:100AB0000F4B0F4A526812490A405A600C4B0C4ABD
:100AC000D26A0F218A43DA62094B094A126B0D4937
:100AD0000A401A63064B064A526B01218A435A6345
:100AE000034B00229A6000F00FF8BD4680BDC0465F
:100AF000001002400CB8FFF8FFFFF6FEFFFFFBFFFF
:100B0000FFFFC0FFACFEFFFF80B582B000AF002347
:100B10007B6000233B60314B304A126880214902E0
:100B20000A431A602D4B1A6880239B0213403B60D6
:100B30007B6801337B603B68002B04D17A68A0237B
:100B4000DB009A42EED1254B1A6880239B021340AA
:100B500002D001233B6001E000233B603B68012B96
:100B600038D11F4B11221A601C4B1C4A52685A6024
:100B70001A4B1A4A52685A60184B184A5268194957
:100B80000A405A60154B154A5268882149030A43A6
:100B90005A60124B114A1268802149040A431A60B4
:100BA000C0460E4B1A6880239B041340F9D00B4BB0
:100BB0000A4A526803218A435A60084B074A52681E
:100BC00002210A435A60C046044B5B680C22134062
:100BD000082BF9D1BD4602B080BDC04600100240CE
:100BE00000200240FF7FC0FF80B582B000AF786078
:100BF00080239B04181C0121FFF7A0FA80239B048B
:100C0000181C0021FFF79AFABD4602B080BDC0460D
:100C100080B584B000AF786039600F23FB180022E4
:100C20001A700023BB607B681B68022293431A1C66
:100C30007B681A607B681B6801221A437B681A6014
:100C400002E0BB680133BB607B685B680122134034
:100C500003D1BB685C4A9342F3D17B685B68012295
:100C6000134004D10F23FB1800221A70A4E03B6844
:100C70009B79012B06D17B681B6880221A437B6815
:100C80001A6006E07B681B68802293431A1C7B680D
:100C90001A603B68DB79012B06D17B681B68402218
:100CA0001A437B681A6006E07B681B684022934306
:100CB0001A1C7B681A603B681B7A012B06D17B6883
:100CC0001B6820221A437B681A6006E07B681B6859
:100CD000202293431A1C7B681A603B685B7A012BC5
:100CE00006D17B681B6810221A437B681A6006E0F5
:100CF0007B681B68102293431A1C7B681A603B6850
:100D00009B7A012B06D17B681B6808221A437B68FB
:100D10001A6006E07B681B68082293431A1C7B68F4
:100D20001A603B68DB7A012B06D17B681B680422C2
:100D30001A437B681A6006E07B681B6804229343B1
:100D40001A1C7B681A603B689B789A073B68DB78C3
:100D50001B061A433B681B791B041A433B685B79EB
:100D60001B051A433B681B88013B1A437B68DA6109
:100D70007B681B68012293431A1C7B681A6000235E
:100D8000BB6002E0BB680133BB607B685B6801222B
:100D9000134003D0BB680C4A9342F3D17B685B6875
:100DA0000122134004D00F23FB1800221A7003E025
:100DB0000F23FB1801221A700F23FB181B78181C35
:100DC000BD4604B080BDC046FFFFFF0080B584B0C3
:100DD00000AF78600023FB607B689B7A1A1C0123BC
:100DE0009340FB605F495F4A80239B00D3580122F8
:100DF0001A4380239B00CA505A495A4A87239B00B2
:100E0000D358FA68D2431A4087239B00CA507B68A4
:100E10001B7B002B27D15349524A83239B00D35875
:100E2000FA68D2431A4083239B00CA504D497B681D
:100E30009B7A181C7B68DB881B047A6852881A43EB
:100E4000031C4833DB005A5046497B689B7A181CC8
:100E50007B689B881B047A6812881A43031C4833FA
:100E6000DB00CB185A607B681B7B012B26D13D49E8
:100E70003C4A83239B00D258FB681A4383239B0080
:100E8000CA5038497B689B7A181C7B681B881B04F6
:100E90007A6852881A43031C4833DB005A503149A0
:100EA0007B689B7A181C7B689B881B047A68D288B5
:100EB0001A43031C4833DB00CB185A607B68DB7A8B
:100EC000002B0BD12749274A81239B00D358FA686E
:100ED000D2431A4081239B00CA5009E02149214A8C
:100EE00081239B00D258FB681A4381239B00CA5080
:100EF0007B681B89002B0AD11A491A4A85239B005B
:100F0000D358FA68D2431A4085239B00CA507B68A5
:100F10001B89012B09D11349124A85239B00D25802
:100F2000FB681A4385239B00CA507B685B7B012BBF
:100F300009D10C490B4A87239B00D258FB681A43FE
:100F400087239B00CA500749064A80239B00D35839
:100F5000012293431A1C80239B00CA50BD4604B053
:100F600080BDC0460064004080B582B000AF7860AC
:100F70007B6800229A717B680022DA717B6800220C
:100F80001A727B6800225A727B6800229A727B6810
:100F90000022DA727B6800229A707B680022DA7085
:100FA0007B6803221A717B6802225A717B680122D6
:100FB0001A80BD4602B080BD80B584B000AF7860B5
:100FC00039600F23FB1800221A707B689A6880230F
:100FD000DB04134004D00F23FB1800221A7019E021
:100FE0007B689A6880231B05134004D00F23FB18ED
:100FF00001221A700EE07B689A6880235B0513401B
:1010000004D00F23FB1802221A7003E00F23FB18F1
:1010100004221A700F23FB181B78042B00D1B0E0B8
:101020000F23FB181A780F23FB1819787B681831E7
:101030000901CB58012119407B6818321201D150A7
:101040003B681B7A002B15D10F23FB181A780F234E
:10105000FB1819787B6818310901C9583B681B686F
:101060005B053868407A034319437B6818321201E4
:10107000D15017E00F23FB181A780F23FB181978AB
:101080007B6818310901C9583B685B68DB00386828
:10109000007A03433868407A034319437B68183267
:1010A0001201D1503B689B7A0F221340DAB23B68A1
:1010B0009A720F23FB1818780F23FB181B787A6895
:1010C00018331B01D3185B680F2293431A1C7968ED
:1010D000031C18331B01CB185A600F23FB18187818
:1010E0000F23FB181B787A6818331B01D3185B6831
:1010F0003A68927A1A437968031C18331B01CB189B
:101100005A600F23FB1819783B689B7B1A063B68D3
:101110005B7B1B041A433B681B7B1B0213433A682F
:10112000D27A1A437868C4235B0009014118CB18AE
:101130001A600F23FB1819783B689B7C1A063B68E2
:101140005B7C1B041A433B681B7C1B0213433A68FD
:10115000D27B1A437868C4235B0009014118CB187D
:101160005A600F23FB181A780F23FB1819787B6835
:1011700018310901CB58012119437B68183212013B
:10118000D1500F23FB181B78181CBD4604B080BD3E
:1011900080B584B000AFF8607A600B23FB180A1C9E
:1011A0001A700B23FB181A78FB681B321201D358F4
:1011B000DBB204221340DAB27B681A727B681B7AB6
:1011C000002B0AD10B23FB181A78FB681B32120183
:1011D000D3585A0D7B681A6009E00B23FB181A7864
:1011E000FB681B321201D358DA087B685A600B2364
:1011F000FB181A78FB681B321201D358DBB20222AB
:101200001340DAB27B685A720B23FB181B78FA681A
:101210001B331B01D3185B68DBB20F221340DAB219
:101220007B689A720B23FB181B78FA681B331B012F
:10123000D3185B681B0ADAB27B68DA740B23FB18DD
:101240001A78F968DC235B0012018A18D3181B682E
:10125000DAB27B68DA720B23FB181A78F968DC23A0
:101260005B0012018A18D3181B681B0ADAB27B686C
:101270001A730B23FB181A78F968DC235B00120140
:101280008A18D3181B681B0CDAB27B685A730B23BD
:10129000FB181A78F968DC235B0012018A18D3184E
:1012A0001B681B0EDAB27B689A730B23FB181A7843
:1012B000F968DC235B0012018A18D3185B68DAB284
:1012C0007B68DA730B23FB181A78F968DC235B0060
:1012D00012018A18D3185B681B0ADAB27B681A7489
:1012E0000B23FB181A78F968DC235B0012018A18BB
:1012F000D3185B681B0CDAB27B685A740B23FB189B
:101300001A78F968DC235B0012018A18D3185B682D
:101310001B0EDAB27B689A740B23FB181B78002B28
:1013200006D1FB68DB6820221A43FB68DA6005E01F
:10133000FB681B6920221A43FB681A61BD4604B092
:1013400080BDC04680B584B000AFF860B960FB1DB9
:101350001A70FB1D1B78002B06D0FB685A69BB680E
:101360001A43FB685A6106E0FB685B69BA68D243BE
:101370001A40FB685A61BD4604B080BD80B584B098
:1013800000AF78600023FB607B689B78002B39D02E
:10139000234A7B681B789B08DBB2C0339B009B58B9
:1013A000FB607B681B781A1C03231340DB00FF22C1
:1013B0009A40131CDA43FB681340FB607B685B7840
:1013C0009B01FF221A407B681B78191C03230B40EA
:1013D000DB009A40131CFA681343FB6010497B68DA
:1013E0001B789B08DBB2C0339B00FA685A500C4B49
:1013F0007A681278111C1F220A40012191400A1CB0
:101400001A600AE006497B681B781A1C1F231340E8
:1014100001229A40131C80228B50BD4604B080BD2F
:1014200000E100E0002243088B4274D303098B42A1
:101430005FD3030A8B4244D3030B8B4228D3030CA4
:101440008B420DD3FF22090212BA030C8B4202D346
:101450001212090265D0030B8B4219D300E0090A6E
:10146000C30B8B4201D3CB03C01A5241830B8B4277
:1014700001D38B03C01A5241430B8B4201D34B0360
:10148000C01A5241030B8B4201D30B03C01A5241C5
:10149000C30A8B4201D3CB02C01A5241830A8B424A
:1014A00001D38B02C01A5241430A8B4201D34B0233
:1014B000C01A5241030A8B4201D30B02C01A524197
:1014C000CDD2C3098B4201D3CB01C01A524183094B
:1014D0008B4201D38B01C01A524143098B4201D385
:1014E0004B01C01A524103098B4201D30B01C01AB0
:1014F0005241C3088B4201D3CB00C01A524183082A
:101500008B4201D38B00C01A524143088B4201D356
:101510004B00C01A5241411A00D2014652411046B6
:101520007047FFE701B5002000F00CF802BDC0468F
:101530000029F7D003B5FFF775FF0EBC4243891AA7
:101540001847C0467047C046DE050008EA05000897
:10155000040600081E0600083806000852060008A7
:10156000006CDC0200000000000000000102030427
:041570000607080959
:0400000508000000EF
:00000001FF
